:060000000A128A110C280F
:10000800FE00030EF2000A08F3000A128A116228A1
:100018000A128A110F28F601F701F801F901831273
:100028000313A601A70183010A128A11EF2883127C
:100038000313061B2028212825280130F60000304C
:10004800F700061F282829283F2876037704031D70
:100058002E282F283F280D30F100FB30F000F00B40
:100068003328F10B33283828831203130808013E7C
:100078008800F601F701861B4228432847280130EB
:10008800A6000030A700861F4A284B2861282603AF
:100098002704031D5028512861280D30F100FB303A
:1000A800F000F00B5528F10B55285A28831203133A
:1000B8000808FF3E8800A601A70108008312031361
:1000C8008C1D6728682889280A128A113B210A1280
:1000D8008A11F9007903031D722873287928780892
:1000E8000A128A114B210A128A117908031D7D28E8
:1000F8007E2886288312031308080A128A114B21C6
:100108000A128A11831203138C110B1C8C288D2858
:1001180093280A128A111B200A128A110B107308DD
:100128008A00720E8300FE0E7E0E090083160313EA
:100138000F178F160F120F148316031788018901E2
:1001480008148316031305140617861788018312EB
:10015800031388018B170B178C11831603138C1547
:1001680085168B15811395171517961716170B10EB
:1001780083120313A001A101A20124300A128A11DB
:1001880014210A128A11080083120313A2000E30E8
:100198002202031CD028D128D428F401F501EE2826
:1001A80040309F002208A00001300310A00DFF3E40
:1001B800031DD9280310200D9F001F149F149F189A
:1001C800E628E728E3281E08A000A1012008F4007B
:1001D8002108F500080040300A128A1132210A125B
:1001E8008A110A128A119A200A128A1100300A12F8
:1001F8008A11C8200A128A117408F8000230831282
:100208000313A5004530A400A930A300A30B0A29B5
:10021800A40B0A29A50B0A29FA280A128A110C2804
:10022800F400831603138712741D1B291C29242923
:1002380083120313220883160313940087152C29AD
:1002480083120313200822048316031394008711D2
:10025800740883120313210494000800F400831621
:1002680003139F017408831203139F0008000A12E6
:100278008A1144210A128A118312031313080800F1
:1002880083160313141C49294A2944290800F0003D
:0A029800700883120313930008009E
:08400000FF3FFF3FFF3FFF3FC0
:04400E00D420FF3F7C
:00000001FF
