:100000000A128A11F32F00308A000408840A82073A
:100010000034013400340A34003464340034E834E9
:1000200003341034273441344434433431343A34C3
:100030002034253475342034203463346F346E34E6
:1000400074343A342034203400344134443443345A
:1000500032343A342034253475342034203420347A
:0A0060002034303420342034003402
:10093600F000700883120313930008008316031354
:10094600141CA62CA72CA12C080064008001840A84
:100956000406031900340406A92C0A128A11A124DC
:100966000A128A118312031313080800F300831670
:1009760003138712731DC02CC12CC52C720894005A
:100986008715C92C700872049400871173087104C6
:100996008312031394000800F30083120313081351
:1009A60073080A128A112A250A128A11831203135E
:1009B60088170630F2003030F100F10BE02CF20B14
:1009C600E02C000083120313881308008316031318
:1009D6000F178F160F120F1483160317880189013C
:1009E60083160313071187108601880183120313E8
:1009F6008601880107158714F001F101F201203004
:100A06000A128A11B9240A128A110800F800F6019E
:100A1600F7011E2D76087807F50075088400000892
:100A26000A128A114C250A128A110130F607031898
:100A3600F70A0030F70776087807F500750884008E
:100A460083130008031D282D292D0D2D0800F00005
:100A5600701C2E2D2F2D332D831203130616362DC3
:100A6600831203130612F01C392D3A2D3C2D8616DF
:100A76003D2D8612701D402D412D432D0617442D08
:100A86000613F01D472D482D4A2D86174B2D86132C
:100A96000800F40074080F39F2007408F039F30006
:100AA6008312031308177308F10004300310F10CC6
:100AB600FF3E031D592D71080A128A112A250A12B2
:100AC6008A118312031388170D30F100F10B692D7B
:100AD60083120313881372080A128A112A250A122E
:100AE6008A118312031388170D30F100F10B792D4B
:100AF6008312031388130800780879040319842DD8
:100B0600852DB42DFD01FD0A932D01300310F80D3E
:100B1600F90DFF3E031D892D0130FC007C08FD0701
:100B2600F91F962D972D882D79087B02031D9D2D83
:100B360078087A02031CA02DA12DA72D7808FA02A9
:100B46007908031CFB03FB0201300310F90CF80CB7
:100B5600FF3E031DA82D0130FD02031DB32DB42D4C
:100B6600972D7B08F9007A08F8000800F501F601D0
:100B7600700871040319C02DC12DF82DF701F70A6D
:100B8600CF2D01300310F00DF10DFF3E031DC52DD5
:100B96000130F4007408F707F11FD22DD32DC42DB0
:100BA60001300310F50DF60DFF3E031DD42D71081F
:100BB6007302031DE02D70087202031CE32DE42D61
:100BC600EB2D7008F2027108031CF303F30275148F
:100BD60001300310F10CF00CFF3E031DEC2D01302B
:100BE600F702031DF72DF82DD32D7608F1007508B1
:100BF600F0000800F6007603031D022E032E202EB9
:100C060074087F3EF9007908F50004300310F50CEE
:100C1600FF3E031D092E7508F70079080F39F80005
:100C260077080A128A11CF240A128A1178080A1242
:100C36008A11CF240A128A11422E02307606031D2B
:100C4600252E262E422E7408BF3EF9007908F5009F
:100C560004300310F50CFF3E031D2C2E7508F7001B
:100C660079080F39F80077080A128A11CF240A1278
:100C76008A1178080A128A11CF240A128A110800EA
:100C860000300A128A112A250A128A111A30F50032
:100C9600F830F400F40B4D2EF50B4D2E000003300A
:100CA6000A128A11CF240A128A110730F5007D3004
:100CB600F400F40B5C2EF50B5C2E03300A128A113D
:100CC600CF240A128A114230F400F40B682E000079
:100CD60003300A128A11CF240A128A1102300A122C
:100CE6008A11CF240A128A1102300A128A11CF24DD
:100CF6000A128A1108300A128A11CF240A128A119E
:100D060000300A128A11CF240A128A110C300A12F4
:100D16008A11CF240A128A1100300A128A11CF24AE
:100D26000A128A1106300A128A11CF240A128A116F
:100D36002130F400F40B9D2E08000A128A11E924D2
:100D46000A128A110A128A1143260A128A1183127A
:100D560003130711C73083120313C300B22EC30B4C
:100D6600B12EB52E01300A128A119B240A128A115D
:100D76000A128A11B0240A128A1183120313A100DF
:100D8600F401F40A01300A128A11FD250A128A11A9
:100D96000B3083120313B6002108C300C4014308B5
:100DA600B7004408B80022300A128A1132270A1204
:100DB6008A1122300A128A1109250A128A11C730AD
:100DC60083120313C300E72EC30BE62EEA2E83120B
:100DD600031307158710C73083120313C300F32EBE
:100DE600C30BF22EF62E01300A128A119B240A1228
:100DF6008A110A128A11B0240A128A118312031365
:100E0600A000F401F40A02300A128A11FD250A1222
:100E16008A111D3083120313B6002008C300C401D3
:100E26004308B7004408B80022300A128A11322754
:100E36000A128A1122300A128A1109250A128A1107
:100E4600C73083120313C300282FC30B272F2B2F62
:100E5600831203138714AA2E0A128A1100288312FA
:100E66000313C1003730BD00DE2F253042060319BB
:100E76003D2F3E2F482F41088400420883138000EF
:100E86000130B9003908C107DE2FBC014F2FC03031
:100E9600B9003908BC04692F0130B607FF303607A0
:100EA60084000A128A1103200A128A11C200B900AC
:100EB600BA013A08003A0319612FDE2F3908003AC1
:100EC6000319EE2F753A03194A2FDE2F3D088400C9
:100ED60083130008BE00840A0008BF000230B90070
:100EE6003908BD07C201C20A4208B9003907013EE6
:100EF60084000A128A1103200A128A11BA000A1201
:100F06008A1103200A128A11BB003B083F02031D07
:100F16008E2F3A083E020318912F922F932F9D2F62
:100F26000130B9003908C20705304206031D9C2F5F
:100F36009D2F772F4208C000D52F0A30F8000030C9
:100F4600F9004008B9003907013E84000A128A11E7
:100F560003200A128A11F0000A128A1103200A12CB
:100F66008A11F1003F08F3003E08F2000A128A11C6
:100F7600B9250A128A117108FB007008FA000A12D4
:100F86008A117F250A128A117808303E83120313CC
:100F9600C200410884004208831380000130B90072
:100FA6003908C107FF30B9003908C007400A031DD8
:100FB600DD2FDE2FA02F0130B607FF303607840065
:100FC6000A128A1103200A128A11C2004208031D5E
:100FD600ED2FEE2F382F410884008313800108007F
:100FE60083132030840036300A128A11A8240A128C
:0A0FF6008A1183010A128A11A02E4D
:08400000FF3FFF3FFF3FFF3FC0
:04400E00D420FF3F7C
:00000001FF
